{
  "_format": "hh-sol-artifact-1",
  "contractName": "Game",
  "sourceName": "contracts/game/Game.sol",
  "abi": [
    {
      "inputs": [
        {
          "internalType": "address",
          "name": "_landToken",
          "type": "address"
        },
        {
          "internalType": "address",
          "name": "_settingAddress",
          "type": "address"
        },
        {
          "internalType": "address",
          "name": "_houseAddress",
          "type": "address"
        },
        {
          "internalType": "address",
          "name": "_helperAddress",
          "type": "address"
        },
        {
          "internalType": "address",
          "name": "_validatorAddress",
          "type": "address"
        }
      ],
      "stateMutability": "nonpayable",
      "type": "constructor"
    },
    {
      "anonymous": false,
      "inputs": [
        {
          "indexed": true,
          "internalType": "address",
          "name": "user",
          "type": "address"
        },
        {
          "indexed": true,
          "internalType": "uint256",
          "name": "tokenId",
          "type": "uint256"
        }
      ],
      "name": "Activate",
      "type": "event"
    },
    {
      "anonymous": false,
      "inputs": [
        {
          "indexed": true,
          "internalType": "address",
          "name": "user",
          "type": "address"
        },
        {
          "indexed": true,
          "internalType": "uint256",
          "name": "tokenId",
          "type": "uint256"
        },
        {
          "indexed": false,
          "internalType": "uint256",
          "name": "lumber",
          "type": "uint256"
        },
        {
          "indexed": false,
          "internalType": "uint256",
          "name": "power",
          "type": "uint256"
        }
      ],
      "name": "BurnLumber",
      "type": "event"
    },
    {
      "anonymous": false,
      "inputs": [
        {
          "indexed": true,
          "internalType": "address",
          "name": "user",
          "type": "address"
        },
        {
          "indexed": true,
          "internalType": "uint256",
          "name": "tokenId",
          "type": "uint256"
        },
        {
          "indexed": false,
          "internalType": "uint256",
          "name": "addonId",
          "type": "uint256"
        }
      ],
      "name": "BuyAddon",
      "type": "event"
    },
    {
      "anonymous": false,
      "inputs": [
        {
          "indexed": true,
          "internalType": "address",
          "name": "user",
          "type": "address"
        },
        {
          "indexed": true,
          "internalType": "uint256",
          "name": "tokenId",
          "type": "uint256"
        }
      ],
      "name": "BuyFireplace",
      "type": "event"
    },
    {
      "anonymous": false,
      "inputs": [
        {
          "indexed": true,
          "internalType": "address",
          "name": "user",
          "type": "address"
        },
        {
          "indexed": true,
          "internalType": "uint256",
          "name": "tokenId",
          "type": "uint256"
        }
      ],
      "name": "BuyHarvester",
      "type": "event"
    },
    {
      "anonymous": false,
      "inputs": [
        {
          "indexed": true,
          "internalType": "address",
          "name": "user",
          "type": "address"
        },
        {
          "indexed": false,
          "internalType": "uint256",
          "name": "landtoken",
          "type": "uint256"
        },
        {
          "indexed": false,
          "internalType": "uint256",
          "name": "power",
          "type": "uint256"
        }
      ],
      "name": "BuyPower",
      "type": "event"
    },
    {
      "anonymous": false,
      "inputs": [
        {
          "indexed": true,
          "internalType": "address",
          "name": "user",
          "type": "address"
        },
        {
          "indexed": true,
          "internalType": "uint256",
          "name": "tokenId",
          "type": "uint256"
        },
        {
          "indexed": false,
          "internalType": "uint256",
          "name": "facilityType",
          "type": "uint256"
        }
      ],
      "name": "BuyResourceOverdrive",
      "type": "event"
    },
    {
      "anonymous": false,
      "inputs": [
        {
          "indexed": true,
          "internalType": "address",
          "name": "user",
          "type": "address"
        },
        {
          "indexed": true,
          "internalType": "uint256",
          "name": "tokenId",
          "type": "uint256"
        }
      ],
      "name": "BuyTokenOverdrive",
      "type": "event"
    },
    {
      "anonymous": false,
      "inputs": [
        {
          "indexed": true,
          "internalType": "address",
          "name": "user",
          "type": "address"
        },
        {
          "indexed": true,
          "internalType": "uint256",
          "name": "tokenId",
          "type": "uint256"
        },
        {
          "indexed": false,
          "internalType": "uint256",
          "name": "_type",
          "type": "uint256"
        }
      ],
      "name": "BuyToolshed",
      "type": "event"
    },
    {
      "anonymous": false,
      "inputs": [
        {
          "indexed": true,
          "internalType": "address",
          "name": "user",
          "type": "address"
        },
        {
          "indexed": true,
          "internalType": "uint256",
          "name": "tokenId",
          "type": "uint256"
        }
      ],
      "name": "ConcreteFoundation",
      "type": "event"
    },
    {
      "anonymous": false,
      "inputs": [
        {
          "indexed": true,
          "internalType": "address",
          "name": "user",
          "type": "address"
        },
        {
          "indexed": true,
          "internalType": "uint256",
          "name": "tokenId",
          "type": "uint256"
        }
      ],
      "name": "FertilizeGarden",
      "type": "event"
    },
    {
      "anonymous": false,
      "inputs": [
        {
          "indexed": true,
          "internalType": "address",
          "name": "user",
          "type": "address"
        },
        {
          "indexed": true,
          "internalType": "uint256",
          "name": "tokenId",
          "type": "uint256"
        },
        {
          "indexed": false,
          "internalType": "uint256",
          "name": "_type",
          "type": "uint256"
        }
      ],
      "name": "Fortify",
      "type": "event"
    },
    {
      "anonymous": false,
      "inputs": [
        {
          "indexed": true,
          "internalType": "address",
          "name": "user",
          "type": "address"
        },
        {
          "indexed": true,
          "internalType": "uint256",
          "name": "tokenId",
          "type": "uint256"
        },
        {
          "indexed": false,
          "internalType": "uint256",
          "name": "lumberAmount",
          "type": "uint256"
        }
      ],
      "name": "FrontloadFirepit",
      "type": "event"
    },
    {
      "anonymous": false,
      "inputs": [
        {
          "indexed": true,
          "internalType": "address",
          "name": "user",
          "type": "address"
        },
        {
          "indexed": false,
          "internalType": "uint256",
          "name": "lumberAmount",
          "type": "uint256"
        },
        {
          "indexed": false,
          "internalType": "uint256",
          "name": "powerAmount",
          "type": "uint256"
        }
      ],
      "name": "GatherLumber",
      "type": "event"
    },
    {
      "anonymous": false,
      "inputs": [
        {
          "indexed": true,
          "internalType": "address",
          "name": "user",
          "type": "address"
        },
        {
          "indexed": true,
          "internalType": "uint256",
          "name": "tokenId",
          "type": "uint256"
        },
        {
          "indexed": false,
          "internalType": "uint256[5]",
          "name": "harvestedResource",
          "type": "uint256[5]"
        }
      ],
      "name": "Harvest",
      "type": "event"
    },
    {
      "anonymous": false,
      "inputs": [
        {
          "indexed": true,
          "internalType": "address",
          "name": "user",
          "type": "address"
        },
        {
          "indexed": true,
          "internalType": "uint256",
          "name": "tokenId",
          "type": "uint256"
        }
      ],
      "name": "OffSale",
      "type": "event"
    },
    {
      "anonymous": false,
      "inputs": [
        {
          "indexed": true,
          "internalType": "address",
          "name": "user",
          "type": "address"
        },
        {
          "indexed": true,
          "internalType": "uint256",
          "name": "tokenId",
          "type": "uint256"
        },
        {
          "indexed": true,
          "internalType": "uint256",
          "name": "price",
          "type": "uint256"
        }
      ],
      "name": "OnSale",
      "type": "event"
    },
    {
      "anonymous": false,
      "inputs": [
        {
          "indexed": true,
          "internalType": "address",
          "name": "previousOwner",
          "type": "address"
        },
        {
          "indexed": true,
          "internalType": "address",
          "name": "newOwner",
          "type": "address"
        }
      ],
      "name": "OwnershipTransferred",
      "type": "event"
    },
    {
      "anonymous": false,
      "inputs": [
        {
          "indexed": true,
          "internalType": "address",
          "name": "user",
          "type": "address"
        },
        {
          "indexed": true,
          "internalType": "uint256",
          "name": "tokenId",
          "type": "uint256"
        },
        {
          "indexed": false,
          "internalType": "uint256",
          "name": "amount",
          "type": "uint256"
        }
      ],
      "name": "Repair",
      "type": "event"
    },
    {
      "anonymous": false,
      "inputs": [
        {
          "indexed": true,
          "internalType": "address",
          "name": "user",
          "type": "address"
        },
        {
          "indexed": true,
          "internalType": "uint256",
          "name": "tokenId",
          "type": "uint256"
        }
      ],
      "name": "RepairByHandyman",
      "type": "event"
    },
    {
      "anonymous": false,
      "inputs": [
        {
          "indexed": true,
          "internalType": "address",
          "name": "user",
          "type": "address"
        },
        {
          "indexed": true,
          "internalType": "uint256",
          "name": "tokenId",
          "type": "uint256"
        },
        {
          "indexed": false,
          "internalType": "uint256",
          "name": "addonId",
          "type": "uint256"
        }
      ],
      "name": "SalvageAddon",
      "type": "event"
    },
    {
      "anonymous": false,
      "inputs": [
        {
          "indexed": true,
          "internalType": "address",
          "name": "user",
          "type": "address"
        },
        {
          "indexed": true,
          "internalType": "uint256",
          "name": "tokenId",
          "type": "uint256"
        },
        {
          "indexed": false,
          "internalType": "uint256",
          "name": "_fromType",
          "type": "uint256"
        },
        {
          "indexed": false,
          "internalType": "uint256",
          "name": "_toType",
          "type": "uint256"
        }
      ],
      "name": "SwitchToolshed",
      "type": "event"
    },
    {
      "anonymous": false,
      "inputs": [
        {
          "indexed": true,
          "internalType": "address",
          "name": "user",
          "type": "address"
        },
        {
          "indexed": false,
          "internalType": "uint256[5]",
          "name": "updatedResource",
          "type": "uint256[5]"
        }
      ],
      "name": "UpdateResource",
      "type": "event"
    },
    {
      "anonymous": false,
      "inputs": [
        {
          "indexed": true,
          "internalType": "address",
          "name": "user",
          "type": "address"
        },
        {
          "indexed": true,
          "internalType": "uint256",
          "name": "tokenId",
          "type": "uint256"
        },
        {
          "indexed": false,
          "internalType": "uint256",
          "name": "_type",
          "type": "uint256"
        },
        {
          "indexed": false,
          "internalType": "uint256",
          "name": "level",
          "type": "uint256"
        }
      ],
      "name": "UpgradeFacility",
      "type": "event"
    },
    {
      "inputs": [
        {
          "internalType": "uint256",
          "name": "tokenId",
          "type": "uint256"
        }
      ],
      "name": "activateHouse",
      "outputs": [],
      "stateMutability": "nonpayable",
      "type": "function"
    },
    {
      "inputs": [
        {
          "internalType": "address",
          "name": "user",
          "type": "address"
        },
        {
          "internalType": "uint256[5]",
          "name": "resource",
          "type": "uint256[5]"
        }
      ],
      "name": "addResourceByAdmin",
      "outputs": [],
      "stateMutability": "nonpayable",
      "type": "function"
    },
    {
      "inputs": [
        {
          "internalType": "uint256",
          "name": "tokenId",
          "type": "uint256"
        },
        {
          "internalType": "uint256",
          "name": "lumber",
          "type": "uint256"
        }
      ],
      "name": "burnLumberToMakePower",
      "outputs": [],
      "stateMutability": "nonpayable",
      "type": "function"
    },
    {
      "inputs": [
        {
          "internalType": "uint256",
          "name": "tokenId",
          "type": "uint256"
        },
        {
          "internalType": "uint256",
          "name": "addonId",
          "type": "uint256"
        }
      ],
      "name": "buyAddon",
      "outputs": [],
      "stateMutability": "nonpayable",
      "type": "function"
    },
    {
      "inputs": [
        {
          "internalType": "uint256",
          "name": "tokenId",
          "type": "uint256"
        }
      ],
      "name": "buyConcreteFoundation",
      "outputs": [],
      "stateMutability": "nonpayable",
      "type": "function"
    },
    {
      "inputs": [
        {
          "internalType": "uint256",
          "name": "tokenId",
          "type": "uint256"
        }
      ],
      "name": "buyFireplace",
      "outputs": [],
      "stateMutability": "nonpayable",
      "type": "function"
    },
    {
      "inputs": [
        {
          "internalType": "uint256",
          "name": "tokenId",
          "type": "uint256"
        }
      ],
      "name": "buyHarvester",
      "outputs": [],
      "stateMutability": "nonpayable",
      "type": "function"
    },
    {
      "inputs": [
        {
          "internalType": "uint256",
          "name": "amount",
          "type": "uint256"
        },
        {
          "internalType": "uint256",
          "name": "tokenId",
          "type": "uint256"
        }
      ],
      "name": "buyPowerWithLandtoken",
      "outputs": [],
      "stateMutability": "payable",
      "type": "function"
    },
    {
      "inputs": [
        {
          "internalType": "uint256",
          "name": "tokenId",
          "type": "uint256"
        },
        {
          "internalType": "uint256",
          "name": "facilityType",
          "type": "uint256"
        }
      ],
      "name": "buyResourceOverdrive",
      "outputs": [],
      "stateMutability": "nonpayable",
      "type": "function"
    },
    {
      "inputs": [
        {
          "internalType": "uint256",
          "name": "tokenId",
          "type": "uint256"
        }
      ],
      "name": "buyTokenOverdrive",
      "outputs": [],
      "stateMutability": "nonpayable",
      "type": "function"
    },
    {
      "inputs": [
        {
          "internalType": "uint256",
          "name": "tokenId",
          "type": "uint256"
        },
        {
          "internalType": "uint256",
          "name": "_type",
          "type": "uint256"
        }
      ],
      "name": "buyToolshed",
      "outputs": [],
      "stateMutability": "nonpayable",
      "type": "function"
    },
    {
      "inputs": [
        {
          "internalType": "uint256",
          "name": "tokenId",
          "type": "uint256"
        }
      ],
      "name": "fertilizeGarden",
      "outputs": [],
      "stateMutability": "nonpayable",
      "type": "function"
    },
    {
      "inputs": [
        {
          "internalType": "uint256",
          "name": "tokenId",
          "type": "uint256"
        },
        {
          "internalType": "uint256",
          "name": "_type",
          "type": "uint256"
        }
      ],
      "name": "fortify",
      "outputs": [],
      "stateMutability": "nonpayable",
      "type": "function"
    },
    {
      "inputs": [
        {
          "internalType": "uint256",
          "name": "tokenId",
          "type": "uint256"
        },
        {
          "internalType": "uint256",
          "name": "lumberAmount",
          "type": "uint256"
        }
      ],
      "name": "frontLoadFirepit",
      "outputs": [],
      "stateMutability": "nonpayable",
      "type": "function"
    },
    {
      "inputs": [
        {
          "internalType": "uint256",
          "name": "amount",
          "type": "uint256"
        },
        {
          "internalType": "uint256",
          "name": "tokenId",
          "type": "uint256"
        }
      ],
      "name": "gatherLumberWithPower",
      "outputs": [],
      "stateMutability": "nonpayable",
      "type": "function"
    },
    {
      "inputs": [],
      "name": "getLastGatherLumberTime",
      "outputs": [
        {
          "internalType": "uint256[3]",
          "name": "",
          "type": "uint256[3]"
        }
      ],
      "stateMutability": "view",
      "type": "function"
    },
    {
      "inputs": [
        {
          "internalType": "address",
          "name": "user",
          "type": "address"
        },
        {
          "internalType": "uint256",
          "name": "tokenId",
          "type": "uint256"
        }
      ],
      "name": "getResource",
      "outputs": [
        {
          "internalType": "uint256[5]",
          "name": "",
          "type": "uint256[5]"
        }
      ],
      "stateMutability": "view",
      "type": "function"
    },
    {
      "inputs": [
        {
          "internalType": "uint256",
          "name": "tokenId",
          "type": "uint256"
        },
        {
          "internalType": "bool[5]",
          "name": "harvestingReward",
          "type": "bool[5]"
        }
      ],
      "name": "harvest",
      "outputs": [],
      "stateMutability": "nonpayable",
      "type": "function"
    },
    {
      "inputs": [
        {
          "internalType": "uint256",
          "name": "tokenId",
          "type": "uint256"
        }
      ],
      "name": "hireHandyman",
      "outputs": [],
      "stateMutability": "payable",
      "type": "function"
    },
    {
      "inputs": [
        {
          "internalType": "uint256",
          "name": "tokenId",
          "type": "uint256"
        }
      ],
      "name": "offSale",
      "outputs": [],
      "stateMutability": "nonpayable",
      "type": "function"
    },
    {
      "inputs": [
        {
          "internalType": "uint256",
          "name": "tokenId",
          "type": "uint256"
        },
        {
          "internalType": "uint256",
          "name": "amount",
          "type": "uint256"
        }
      ],
      "name": "onSale",
      "outputs": [],
      "stateMutability": "nonpayable",
      "type": "function"
    },
    {
      "inputs": [],
      "name": "owner",
      "outputs": [
        {
          "internalType": "address",
          "name": "",
          "type": "address"
        }
      ],
      "stateMutability": "view",
      "type": "function"
    },
    {
      "inputs": [],
      "name": "renounceOwnership",
      "outputs": [],
      "stateMutability": "nonpayable",
      "type": "function"
    },
    {
      "inputs": [
        {
          "internalType": "uint256",
          "name": "tokenId",
          "type": "uint256"
        },
        {
          "internalType": "uint256",
          "name": "percent",
          "type": "uint256"
        }
      ],
      "name": "repair",
      "outputs": [],
      "stateMutability": "nonpayable",
      "type": "function"
    },
    {
      "inputs": [
        {
          "internalType": "uint256",
          "name": "tokenId",
          "type": "uint256"
        },
        {
          "internalType": "uint256",
          "name": "addonId",
          "type": "uint256"
        }
      ],
      "name": "salvageAddon",
      "outputs": [],
      "stateMutability": "nonpayable",
      "type": "function"
    },
    {
      "inputs": [
        {
          "internalType": "address",
          "name": "_settingAddress",
          "type": "address"
        },
        {
          "internalType": "address",
          "name": "_houseAddress",
          "type": "address"
        },
        {
          "internalType": "address",
          "name": "_helperAddress",
          "type": "address"
        },
        {
          "internalType": "address",
          "name": "_stakeAddress",
          "type": "address"
        },
        {
          "internalType": "address",
          "name": "_validatorAddress",
          "type": "address"
        }
      ],
      "name": "setContractAddress",
      "outputs": [],
      "stateMutability": "nonpayable",
      "type": "function"
    },
    {
      "inputs": [
        {
          "internalType": "address",
          "name": "_marketplaceAddress",
          "type": "address"
        }
      ],
      "name": "setMarketplaceContract",
      "outputs": [],
      "stateMutability": "nonpayable",
      "type": "function"
    },
    {
      "inputs": [
        {
          "internalType": "uint256",
          "name": "tokenId",
          "type": "uint256"
        },
        {
          "internalType": "uint256",
          "name": "_type",
          "type": "uint256"
        }
      ],
      "name": "switchToolshed",
      "outputs": [],
      "stateMutability": "nonpayable",
      "type": "function"
    },
    {
      "inputs": [
        {
          "internalType": "address",
          "name": "newOwner",
          "type": "address"
        }
      ],
      "name": "transferOwnership",
      "outputs": [],
      "stateMutability": "nonpayable",
      "type": "function"
    },
    {
      "inputs": [
        {
          "internalType": "uint256",
          "name": "tokenId",
          "type": "uint256"
        },
        {
          "internalType": "uint256",
          "name": "facilityType",
          "type": "uint256"
        }
      ],
      "name": "upgradeFacility",
      "outputs": [],
      "stateMutability": "nonpayable",
      "type": "function"
    },
    {
      "inputs": [
        {
          "internalType": "address",
          "name": "",
          "type": "address"
        },
        {
          "internalType": "uint256",
          "name": "",
          "type": "uint256"
        }
      ],
      "name": "userResources",
      "outputs": [
        {
          "internalType": "uint256",
          "name": "",
          "type": "uint256"
        }
      ],
      "stateMutability": "view",
      "type": "function"
    },
    {
      "inputs": [
        {
          "internalType": "uint256",
          "name": "amount",
          "type": "uint256"
        }
      ],
      "name": "withdrawLandToken",
      "outputs": [],
      "stateMutability": "nonpayable",
      "type": "function"
    }
  ],
  "bytecode": "0x60806040523480156200001157600080fd5b5060405162004abc38038062004abc83398101604081905262000034916200011f565b838383838383836200004633620000b2565b600180546001600160a01b03199081166001600160a01b0395861617909155600280548216938516939093179092556003805483169184169190911790556007805482169383169390931790925560068054909216991698909817909755506200018e95505050505050565b600080546001600160a01b038381166001600160a01b0319831681178455604051919092169283917f8be0079c531659141344cd1fd0a4f28419497f9722a3daafe3b4186f6b6457e09190a35050565b80516001600160a01b03811681146200011a57600080fd5b919050565b600080600080600060a0868803121562000137578081fd5b620001428662000102565b9450620001526020870162000102565b9350620001626040870162000102565b9250620001726060870162000102565b9150620001826080870162000102565b90509295509295909350565b61491e806200019e6000396000f3fe6080604052600436106101e35760003560e01c80637b6afce611610102578063c5c5e28211610095578063f0593df711610064578063f0593df714610573578063f2406fd914610593578063f2fde38b146105b3578063fe3f3327146105d357600080fd5b8063c5c5e28214610500578063d458f09f14610520578063df1295c114610540578063edf63cd01461055357600080fd5b8063a5d2d59b116100d1578063a5d2d59b14610473578063ad04a17314610493578063aebe1337146104b3578063bc578276146104d357600080fd5b80637b6afce6146103eb5780638da5cb5b1461040b5780639150cda11461043357806397fd3a641461045357600080fd5b806344e9b4f51161017a5780636ebbc336116101495780636ebbc33614610368578063701857961461038857806370ef6148146103b6578063715018a6146103d657600080fd5b806344e9b4f5146102dd57806359f84f11146102fd578063653db7f6146103285780636c6a64811461034857600080fd5b806335f3ab9d116101b657806335f3ab9d1461025d57806338bb54c31461027d57806339d1db7a1461029d57806344d98c8e146102bd57600080fd5b806301b4bbfc146101e857806306bec8521461020a5780631102610e1461021d5780632522f8271461023d575b600080fd5b3480156101f457600080fd5b50610208610203366004614523565b6105f3565b005b6102086102183660046145bc565b61079c565b34801561022957600080fd5b5061020861023836600461424e565b6109de565b34801561024957600080fd5b50610208610258366004614523565b610a33565b34801561026957600080fd5b506102086102783660046145bc565b610be8565b34801561028957600080fd5b50610208610298366004614523565b610da0565b3480156102a957600080fd5b506102086102b83660046145bc565b610f00565b3480156102c957600080fd5b506102086102d8366004614271565b61105f565b3480156102e957600080fd5b506102086102f8366004614523565b6110e9565b34801561030957600080fd5b50610312611264565b60405161031f919061465a565b60405180910390f35b34801561033457600080fd5b506102086103433660046145bc565b6112ab565b34801561035457600080fd5b506102086103633660046145bc565b611565565b34801561037457600080fd5b506102086103833660046142e1565b6118e8565b34801561039457600080fd5b506103a86103a336600461439a565b6119ba565b60405190815260200161031f565b3480156103c257600080fd5b506102086103d13660046145bc565b6119df565b3480156103e257600080fd5b50610208611b95565b3480156103f757600080fd5b50610208610406366004614553565b611bcb565b34801561041757600080fd5b506000546040516001600160a01b03909116815260200161031f565b34801561043f57600080fd5b5061020861044e366004614523565b611fba565b34801561045f57600080fd5b5061020861046e366004614523565b612163565b34801561047f57600080fd5b5061020861048e366004614523565b61233e565b34801561049f57600080fd5b506102086104ae3660046145bc565b6124e7565b3480156104bf57600080fd5b506102086104ce3660046145bc565b612755565b3480156104df57600080fd5b506104f36104ee36600461439a565b61293f565b60405161031f9190614668565b34801561050c57600080fd5b5061020861051b3660046145bc565b612a37565b34801561052c57600080fd5b5061020861053b3660046145bc565b612e3b565b61020861054e366004614523565b61309e565b34801561055f57600080fd5b5061020861056e3660046145bc565b61324e565b34801561057f57600080fd5b5061020861058e3660046145bc565b61339f565b34801561059f57600080fd5b506102086105ae366004614523565b61359c565b3480156105bf57600080fd5b506102086105ce36600461424e565b613743565b3480156105df57600080fd5b506102086105ee3660046145bc565b6137de565b60075460405163ed4c7efd60e01b8152600481018390523360248201526001600160a01b039091169063ed4c7efd9060440160206040518083038186803b15801561063d57600080fd5b505afa158015610651573d6000803e3d6000fd5b505050506040513d601f19601f8201168201806040525081019061067591906144a4565b61067c5750565b600154604080516344955c9560e01b815290516000926001600160a01b0316916344955c959160048083019260a0929190829003018186803b1580156106c157600080fd5b505afa1580156106d5573d6000803e3d6000fd5b505050506040513d601f19601f820116820180604052508101906106f99190614454565b905061070633838361399f565b60025460405163e978691f60e01b815260048101849052600160248201526001600160a01b039091169063e978691f90604401600060405180830381600087803b15801561075357600080fd5b505af1158015610767573d6000803e3d6000fd5b50506040518492503391507fa13f99de58a6beca3943c75ae7c2ada216549edccea95a17cbab20691f3dc39f90600090a35050565b60075460025433600090815260046020819052604080832054905163c021137960e01b81529182018690526024820152909283926001600160a01b039182169263ae267a2a928792899291169063c02113799060440160206040518083038186803b15801561080a57600080fd5b505afa15801561081e573d6000803e3d6000fd5b505050506040513d601f19601f82011682018060405250810190610842919061453b565b6040516001600160e01b031960e086901b168152600481019390935260248301919091526044820152336064820152608401604080518083038186803b15801561088b57600080fd5b505afa15801561089f573d6000803e3d6000fd5b505050506040513d601f19601f820116820180604052508101906108c391906144c0565b9092509050816108d35750505050565b6006546040516323b872dd60e01b8152336004820152306024820152604481018690526001600160a01b03909116906323b872dd90606401602060405180830381600087803b15801561092557600080fd5b505af1158015610939573d6000803e3d6000fd5b505050506040513d601f19601f8201168201806040525081019061095d91906144a4565b506109683384613d3c565b61099c336040518060a001604052808481526020016000815260200160008152602001600081526020016000815250613e4f565b604080518581526020810183905233917f07bc214b106688dd0965ef995b060d8c78060c04dfe021ae8804f26cd646399491015b60405180910390a250505050565b6000546001600160a01b03163314610a115760405162461bcd60e51b8152600401610a08906146e8565b60405180910390fd5b600880546001600160a01b0319166001600160a01b0392909216919091179055565b6002546040516318b9af1f60e01b815260048101839052600091829182916001600160a01b0316906318b9af1f9060240160606040518083038186803b158015610a7c57600080fd5b505afa158015610a90573d6000803e3d6000fd5b505050506040513d601f19601f82011682018060405250810190610ab49190614358565b91945092509050336001600160a01b03841614610b025760405162461bcd60e51b815260206004820152600c60248201526b1058dd1a5d985d194e88141160a21b6044820152606401610a08565b8115610b445760405162461bcd60e51b8152602060048201526011602482015270105b1c9958591e481858dd1a5d985d1959607a1b6044820152606401610a08565b610b4e8385613d3c565b600254604051635930621560e11b8152600481018690526001600160a01b039091169063b260c42a90602401600060405180830381600087803b158015610b9457600080fd5b505af1158015610ba8573d6000803e3d6000fd5b50506040518692506001600160a01b03861691507ffbd0a3f6e9a0dd5f834515748047e83de8064477489a0a0d6b59c64bbecc992a90600090a350505050565b60075460405163018b9ecd60e21b81526001600160a01b039091169063062e7b3490610c1c908590859033906004016147bb565b60206040518083038186803b158015610c3457600080fd5b505afa158015610c48573d6000803e3d6000fd5b505050506040513d601f19601f82011682018060405250810190610c6c91906144a4565b610c74575050565b60015460405163d61d56b160e01b8152600481018390526000916001600160a01b03169063d61d56b19060240160a06040518083038186803b158015610cb957600080fd5b505afa158015610ccd573d6000803e3d6000fd5b505050506040513d601f19601f82011682018060405250810190610cf19190614454565b9050610cfe33848361399f565b600254604051634400f16b60e01b815260048101859052602481018490526001600160a01b0390911690634400f16b90604401600060405180830381600087803b158015610d4b57600080fd5b505af1158015610d5f573d6000803e3d6000fd5b50506040518481528592503391507ff6471b0635d797282654d2bc3ff6aa6095ee2406ee5f6936a43f7792587dec73906020015b60405180910390a3505050565b6007546040516316690cdd60e31b8152600481018390523360248201526001600160a01b039091169063b34866e89060440160206040518083038186803b158015610dea57600080fd5b505afa158015610dfe573d6000803e3d6000fd5b505050506040513d601f19601f82011682018060405250810190610e2291906144a4565b610e295750565b610e7233826040518060a00160405280670de0b6b3a7640000600f610e4e919061485e565b8152602001600081526020016000815260200160008152602001600081525061399f565b6002546040516338bb54c360e01b8152600481018390526001600160a01b03909116906338bb54c390602401600060405180830381600087803b158015610eb857600080fd5b505af1158015610ecc573d6000803e3d6000fd5b50506040518392503391507fb362926bde493bd4971896f4436a1e325e2a23dbaab2f01ecee34564dc51f60890600090a350565b6007546040516371053e5160e11b81526001600160a01b039091169063e20a7ca290610f34908590859033906004016147bb565b60206040518083038186803b158015610f4c57600080fd5b505afa158015610f60573d6000803e3d6000fd5b505050506040513d601f19601f82011682018060405250810190610f8491906144a4565b610f8c575050565b60006040518060a0016040528060008152602001838152602001600081526020016000815260200160008152509050610fc633848361399f565b600254604051630656df1f60e01b815260048101859052602481018490526001600160a01b0390911690630656df1f90604401600060405180830381600087803b15801561101357600080fd5b505af1158015611027573d6000803e3d6000fd5b50506040518481528592503391507fc6ef636afa15d38d8bc37b5373eee0731eb8749918e6d7fa7827bd074870a88190602001610d93565b6000546001600160a01b031633146110895760405162461bcd60e51b8152600401610a08906146e8565b600180546001600160a01b03199081166001600160a01b0397881617909155600280548216958716959095179094556003805485169386169390931790925560078054841692851692909217909155600980549092169216919091179055565b6000546001600160a01b031633146111135760405162461bcd60e51b8152600401610a08906146e8565b6006546040516370a0823160e01b815230600482015282916001600160a01b0316906370a082319060240160206040518083038186803b15801561115657600080fd5b505afa15801561116a573d6000803e3d6000fd5b505050506040513d601f19601f8201168201806040525081019061118e919061453b565b10156111dc5760405162461bcd60e51b815260206004820152601b60248201527f4e6f7420656e6f756768206f6620746f6b656e2062616c616e636500000000006044820152606401610a08565b60065460405163a9059cbb60e01b8152336004820152602481018390526001600160a01b039091169063a9059cbb90604401602060405180830381600087803b15801561122857600080fd5b505af115801561123c573d6000803e3d6000fd5b505050506040513d601f19601f8201168201806040525081019061126091906144a4565b5050565b61126c6141bd565b3360009081526005602052604090819020815160608101928390529160039082845b81548152602001906001019080831161128e575050505050905090565b6002546040516318b9af1f60e01b815260048101849052600091829182916001600160a01b0316906318b9af1f9060240160606040518083038186803b1580156112f457600080fd5b505afa158015611308573d6000803e3d6000fd5b505050506040513d601f19601f8201168201806040525081019061132c9190614358565b9194509250905080156113515760405162461bcd60e51b8152600401610a08906146c1565b816113945760405162461bcd60e51b81526020600482015260136024820152721058dd1a5d985d1a5bdb881c995c5d5a5c9959606a1b6044820152606401610a08565b336001600160a01b038416146113da5760405162461bcd60e51b815260206004820152600b60248201526a119bdc9d1a599e4e88141160aa1b6044820152606401610a08565b6003841061142a5760405162461bcd60e51b815260206004820152601a60248201527f496e76616c696420666f7274696669636174696f6e20747970650000000000006044820152606401610a08565b60015460405163163ebf4560e11b8152600481018690526000916001600160a01b031690632c7d7e8a9060240160a06040518083038186803b15801561146f57600080fd5b505afa158015611483573d6000803e3d6000fd5b505050506040513d601f19601f820116820180604052508101906114a79190614454565b90506114b484878361399f565b6002546040516342d691a560e01b815260048101889052602481018790526001600160a01b03909116906342d691a590604401600060405180830381600087803b15801561150157600080fd5b505af1158015611515573d6000803e3d6000fd5b5050505085846001600160a01b03167fc588ed82990f1dc2b9b0e0a8a4ba46a4f8cad2f1d3edafdf8d9bb50373825b9d8760405161155591815260200190565b60405180910390a3505050505050565b6002546040516318b9af1f60e01b81526004810184905260009182916001600160a01b03909116906318b9af1f9060240160606040518083038186803b1580156115ae57600080fd5b505afa1580156115c2573d6000803e3d6000fd5b505050506040513d601f19601f820116820180604052508101906115e69190614358565b91935090915050801561160b5760405162461bcd60e51b8152600401610a08906146c1565b336001600160a01b038316146116505760405162461bcd60e51b815260206004820152600a60248201526913db94d85b194e88141160b21b6044820152606401610a08565b60025460405163487d66ad60e11b8152600481018690526001600160a01b03909116906390facd5a9060240160206040518083038186803b15801561169457600080fd5b505afa1580156116a8573d6000803e3d6000fd5b505050506040513d601f19601f820116820180604052508101906116cc919061453b565b1561170d5760405162461bcd60e51b815260206004820152601160248201527014da1bdd59081d5b9cdd185ad948185b1b607a1b6044820152606401610a08565b60025460405163075a295360e11b8152600481018690526001600160a01b0390911690630eb452a69060240160206040518083038186803b15801561175157600080fd5b505afa158015611765573d6000803e3d6000fd5b505050506040513d601f19601f82011682018060405250810190611789919061453b565b156117ca5760405162461bcd60e51b815260206004820152601160248201527014da1bdd59081a185c9d995cdd08185b1b607a1b6044820152606401610a08565b600254604051639bac0b6360e01b815260048101869052600160248201526001600160a01b0390911690639bac0b6390604401600060405180830381600087803b15801561181757600080fd5b505af115801561182b573d6000803e3d6000fd5b5050600854604051635109291960e11b815260048101889052602481018790526001600160a01b03909116925063a2125232915060440160206040518083038186803b15801561187a57600080fd5b505afa15801561188e573d6000803e3d6000fd5b505050506040513d601f19601f820116820180604052508101906118b2919061453b565b506040518390859033907f699afe974fce60a056af44e546f299e7b89c18582cdd879d47aaa81145fcadf890600090a450505050565b6000546001600160a01b031633146119125760405162461bcd60e51b8152600401610a08906146e8565b60005b60058110156119b557670de0b6b3a764000082826005811061194757634e487b7160e01b600052603260045260246000fd5b6020020151611956919061485e565b6001600160a01b0384166000908152600460205260409020826005811061198d57634e487b7160e01b600052603260045260246000fd5b01600082825461199d9190614846565b909155508190506119ad81614894565b915050611915565b505050565b600460205281600052604060002081600581106119d657600080fd5b01549150829050565b6007546040516388000a6160e01b81526001600160a01b03909116906388000a6190611a13908590859033906004016147bb565b60206040518083038186803b158015611a2b57600080fd5b505afa158015611a3f573d6000803e3d6000fd5b505050506040513d601f19601f82011682018060405250810190611a6391906144a4565b611a6b575050565b6001546040516343df747b60e01b8152600481018390526000916001600160a01b0316906343df747b9060240160a06040518083038186803b158015611ab057600080fd5b505afa158015611ac4573d6000803e3d6000fd5b505050506040513d601f19601f82011682018060405250810190611ae89190614454565b9050611af533848361399f565b600254604051636821b20560e11b81526004810185905260016024820152604481018490526001600160a01b039091169063d043640a90606401600060405180830381600087803b158015611b4957600080fd5b505af1158015611b5d573d6000803e3d6000fd5b50506040518481528592503391507fd942786485f5792625f73e26de6c82016c479eecb45d03717ac9f3ebbbcd920690602001610d93565b6000546001600160a01b03163314611bbf5760405162461bcd60e51b8152600401610a08906146e8565b611bc96000613f6d565b565b60075460405163da852df960e01b8152600091829182916001600160a01b03169063da852df990611c049088908890339060040161476c565b60606040518083038186803b158015611c1c57600080fd5b505afa158015611c30573d6000803e3d6000fd5b505050506040513d601f19601f82011682018060405250810190611c5491906144ed565b919450909250905082611c68575050505050565b600354604051637b55c57f60e01b81526000916001600160a01b031690637b55c57f90611c9b9089908990600401614758565b60206040518083038186803b158015611cb357600080fd5b505afa158015611cc7573d6000803e3d6000fd5b505050506040513d601f19601f82011682018060405250810190611ceb919061453b565b9050611cf56141db565b83611d2f57611d2f33886040518060a00160405280868152602001600081526020016000815260200160008152602001600081525061399f565b855115611dbc5760065460405163a9059cbb60e01b8152336004820152602481018590526001600160a01b039091169063a9059cbb90604401602060405180830381600087803b158015611d8257600080fd5b505af1158015611d96573d6000803e3d6000fd5b505050506040513d601f19601f82011682018060405250810190611dba91906144a4565b505b602086015180611dcd575060408601515b80611dd9575060608601515b80611de5575060808601515b15611f0957600254604051635f88926760e01b8152600481018990526000916001600160a01b031690635f8892679060240160a06040518083038186803b158015611e2f57600080fd5b505afa158015611e43573d6000803e3d6000fd5b505050506040513d601f19601f82011682018060405250810190611e679190614454565b905060015b6005811015611efc57878160058110611e9557634e487b7160e01b600052603260045260246000fd5b602002015115611eea57818160058110611ebf57634e487b7160e01b600052603260045260246000fd5b6020020151838260058110611ee457634e487b7160e01b600052603260045260246000fd5b60200201525b80611ef481614894565b915050611e6c565b50611f073383613e4f565b505b60025460405163787110db60e11b81526001600160a01b039091169063f0e221b690611f3d908a908a908890600401614799565b600060405180830381600087803b158015611f5757600080fd5b505af1158015611f6b573d6000803e3d6000fd5b5050505086336001600160a01b03167fc88a79bc9b9cac445480897158f1015592d6c19a511d5d971e9e2497d7ab2dbc83604051611fa99190614668565b60405180910390a350505050505050565b600754604051632bd6a47960e21b8152600481018390523360248201526001600160a01b039091169063af5a91e49060440160206040518083038186803b15801561200457600080fd5b505afa158015612018573d6000803e3d6000fd5b505050506040513d601f19601f8201168201806040525081019061203c91906144a4565b6120435750565b600154604080516384fe4c1560e01b815290516000926001600160a01b0316916384fe4c159160048083019260a0929190829003018186803b15801561208857600080fd5b505afa15801561209c573d6000803e3d6000fd5b505050506040513d601f19601f820116820180604052508101906120c09190614454565b90506120cd33838361399f565b60025460405163f041c79960e01b815260048101849052600160248201526001600160a01b039091169063f041c79990604401600060405180830381600087803b15801561211a57600080fd5b505af115801561212e573d6000803e3d6000fd5b50506040518492503391507ff49d4362475613cf4329a3136ed482d4a935fd569065df2eebecb75aec44ec2690600090a35050565b6002546040516318b9af1f60e01b8152600481018390526000916001600160a01b0316906318b9af1f9060240160606040518083038186803b1580156121a857600080fd5b505afa1580156121bc573d6000803e3d6000fd5b505050506040513d601f19601f820116820180604052508101906121e09190614358565b5090915050336001600160a01b0382161461222b5760405162461bcd60e51b815260206004820152600b60248201526a13d99994d85b194e88141160aa1b6044820152606401610a08565b600254604051639bac0b6360e01b815260048101849052600060248201526001600160a01b0390911690639bac0b6390604401600060405180830381600087803b15801561227857600080fd5b505af115801561228c573d6000803e3d6000fd5b5050600854604051637132917160e01b8152600481018690526001600160a01b0390911692506371329171915060240160206040518083038186803b1580156122d457600080fd5b505afa1580156122e8573d6000803e3d6000fd5b505050506040513d601f19601f8201168201806040525081019061230c919061453b565b50604051829033907f6a70ef5e3ae6ca2a87f56abe5fb27baf70a2dfdd7a3884810c61fa7d76b4585c90600090a35050565b60075460405163339a0cf160e01b8152600481018390523360248201526001600160a01b039091169063339a0cf19060440160206040518083038186803b15801561238857600080fd5b505afa15801561239c573d6000803e3d6000fd5b505050506040513d601f19601f820116820180604052508101906123c091906144a4565b6123c75750565b600154604080516348d242d760e11b815290516000926001600160a01b0316916391a485ae9160048083019260a0929190829003018186803b15801561240c57600080fd5b505afa158015612420573d6000803e3d6000fd5b505050506040513d601f19601f820116820180604052508101906124449190614454565b905061245133838361399f565b60025460405163648353bd60e11b815260048101849052600160248201526001600160a01b039091169063c906a77a90604401600060405180830381600087803b15801561249e57600080fd5b505af11580156124b2573d6000803e3d6000fd5b50506040518492503391507fc999021d98c296bae973c2df1d012d5703973a98398e50c28bd14f98902aad1c90600090a35050565b60075460405163a422f4e160e01b81526001600160a01b039091169063a422f4e19061251b908590859033906004016147bb565b60206040518083038186803b15801561253357600080fd5b505afa158015612547573d6000803e3d6000fd5b505050506040513d601f19601f8201168201806040525081019061256b91906144a4565b612573575050565b60025460405163ad5f266560e01b815260048101849052602481018390526000916001600160a01b03169063ad5f26659060440160206040518083038186803b1580156125bf57600080fd5b505afa1580156125d3573d6000803e3d6000fd5b505050506040513d601f19601f820116820180604052508101906125f7919061453b565b600180549192506000916001600160a01b03169063be3e5b9690859061261e908690614846565b6040516001600160e01b031960e085901b1681526004810192909252602482015260440160a06040518083038186803b15801561265a57600080fd5b505afa15801561266e573d6000803e3d6000fd5b505050506040513d601f19601f820116820180604052508101906126929190614454565b905061269f33858361399f565b60025460405163c647f86960e01b815260048101869052602481018590526001600160a01b039091169063c647f86990604401600060405180830381600087803b1580156126ec57600080fd5b505af1158015612700573d6000803e3d6000fd5b508692503391507ff1810633c9b1f1b03cc887e918a38ccaf7541d2a0f3632c912d6fad87e054f95905085612736866001614846565b604080519283526020830191909152015b60405180910390a350505050565b60075433600090815260046020819052604080832060018101546002549154925163c021137960e01b81529384018890526024840192909252929384936001600160a01b0391821693635edf904e9389938993919291169063c02113799060440160206040518083038186803b1580156127ce57600080fd5b505afa1580156127e2573d6000803e3d6000fd5b505050506040513d601f19601f82011682018060405250810190612806919061453b565b6040516001600160e01b031960e087901b168152600481019490945260248401929092526044830152606482015233608482015260a401604080518083038186803b15801561285457600080fd5b505afa158015612868573d6000803e3d6000fd5b505050506040513d601f19601f8201168201806040525081019061288c91906144c0565b90925090508161289c5750505050565b6128d133856040518060a00160405280600081526020018781526020016000815260200160008152602001600081525061399f565b612905336040518060a001604052808481526020016000815260200160008152602001600081526020016000815250613e4f565b6040805184815260208101839052859133917fd442f694842308359fdc8dbb4740da04dc6f1722f5a222c2e69b9190c4c7051e9101612747565b6129476141db565b61294f6141db565b6001600160a01b03841660009081526004602052604090819020815160a08101928390529160059082845b81548152602001906001019080831161297a5750506002546001600160a01b0389811660009081526004602081905260409182902054915163c021137960e01b81529081018b90526024810191909152959650169363c0211379935060440191505060206040518083038186803b1580156129f457600080fd5b505afa158015612a08573d6000803e3d6000fd5b505050506040513d601f19601f82011682018060405250810190612a2c919061453b565b815290505b92915050565b6002546040516318b9af1f60e01b815260048101849052600091829182916001600160a01b0316906318b9af1f9060240160606040518083038186803b158015612a8057600080fd5b505afa158015612a94573d6000803e3d6000fd5b505050506040513d601f19601f82011682018060405250810190612ab89190614358565b919450925090508015612add5760405162461bcd60e51b8152600401610a08906146c1565b81612b205760405162461bcd60e51b81526020600482015260136024820152721058dd1a5d985d1a5bdb881c995c5d5a5c9959606a1b6044820152606401610a08565b336001600160a01b03841614612b655760405162461bcd60e51b815260206004820152600a60248201526914995c185a5c8e88141160b21b6044820152606401610a08565b60008411612bae5760405162461bcd60e51b8152602060048201526016602482015275050657263656e742073686f756c642061626f766520360541b6044820152606401610a08565b600080612bb96141db565b60035460405163323dde2760e21b8152600481018a9052602481018990526001600160a01b039091169063c8f7789c9060440160e06040518083038186803b158015612c0457600080fd5b505afa158015612c18573d6000803e3d6000fd5b505050506040513d601f19601f82011682018060405250810190612c3c91906145dd565b9194509250905082612c4e8884614846565b1115612c9c5760405162461bcd60e51b815260206004820152601c60248201527f4f766572666c6f77206d6178696d69756d206475726162696c697479000000006044820152606401610a08565b612caf670de0b6b3a7640000600a61485e565b612cb9838561487d565b10612d2557612cd1670de0b6b3a7640000600a61485e565b871015612d205760405162461bcd60e51b815260206004820152601a60248201527f53686f756c6420726570616972206174206c65617374203130250000000000006044820152606401610a08565b612d7d565b82612d308884614846565b14612d7d5760405162461bcd60e51b815260206004820152601f60248201527f53686f756c642072657061697220746f206d6178206475726162696c697479006044820152606401610a08565b612d8833898361399f565b6002546001600160a01b031663c782702b89612da48a86614846565b6040516001600160e01b031960e085901b16815260048101929092526024820152604401600060405180830381600087803b158015612de257600080fd5b505af1158015612df6573d6000803e3d6000fd5b50506040518981528a92503391507f5a88f555591cc7e4de4755fb1b1f1399fac7969e5ff44858f366aa270ce7425a9060200160405180910390a35050505050505050565b6007546040516346a3825160e11b81526001600160a01b0390911690638d4704a290612e6f908590859033906004016147bb565b60206040518083038186803b158015612e8757600080fd5b505afa158015612e9b573d6000803e3d6000fd5b505050506040513d601f19601f82011682018060405250810190612ebf91906144a4565b612ec7575050565b600254604051631b0a628960e11b8152600481018490526000916001600160a01b031690633614c512906024016101806040518083038186803b158015612f0d57600080fd5b505afa158015612f21573d6000803e3d6000fd5b505050506040513d601f19601f82011682018060405250810190612f4591906143c5565b9050612f4f6141db565b612f576141db565b600154604051630550290b60e31b81526001600160a01b0390911690632a81485890612f89908790879060040161471d565b6101406040518083038186803b158015612fa257600080fd5b505afa158015612fb6573d6000803e3d6000fd5b505050506040513d601f19601f82011682018060405250810190612fda919061446f565b92509050612fe933868461399f565b612ff33382613e4f565b600254604051636821b20560e11b81526004810187905260006024820152604481018690526001600160a01b039091169063d043640a90606401600060405180830381600087803b15801561304757600080fd5b505af115801561305b573d6000803e3d6000fd5b50506040518681528792503391507f51679ec55bd8602a2cf63d10ede7bbd699039737cbe5d6d13522fcbbc512878f906020015b60405180910390a35050505050565b600754604051630b77f84960e01b81526004810183905233602482015260009182916001600160a01b0390911690630b77f84990604401604080518083038186803b1580156130ec57600080fd5b505afa158015613100573d6000803e3d6000fd5b505050506040513d601f19601f8201168201806040525081019061312491906144c0565b90925090508161313357505050565b6006546040516323b872dd60e01b8152336004820152306024820152604481018390526001600160a01b03909116906323b872dd90606401602060405180830381600087803b15801561318557600080fd5b505af1158015613199573d6000803e3d6000fd5b505050506040513d601f19601f820116820180604052508101906131bd91906144a4565b506002546040516381696c6b60e01b8152600481018590526001600160a01b03909116906381696c6b90602401600060405180830381600087803b15801561320457600080fd5b505af1158015613218573d6000803e3d6000fd5b50506040518592503391507f918447c336b06e3bf32798a9edea28e49095a6d13ede436f5d8b4bb528548c6690600090a3505050565b60075460405163086934fd60e31b81526001600160a01b0390911690634349a7e890613282908590859033906004016147bb565b60206040518083038186803b15801561329a57600080fd5b505afa1580156132ae573d6000803e3d6000fd5b505050506040513d601f19601f820116820180604052508101906132d291906144a4565b6132da575050565b6132ff33836040518060a00160405280670de0b6b3a7640000600f610e4e919061485e565b600254604051630edf63cd60e41b815260048101849052602481018390526001600160a01b039091169063edf63cd090604401600060405180830381600087803b15801561334c57600080fd5b505af1158015613360573d6000803e3d6000fd5b50506040518381528492503391507fc2328c1040bd829a83c80d17c293ba966db14f64769e79bf01e6e242480399809060200160405180910390a35050565b6007546001600160a01b03166344efd04482846133ba611264565b336040518563ffffffff1660e01b81526004016133da94939291906147da565b60206040518083038186803b1580156133f257600080fd5b505afa158015613406573d6000803e3d6000fd5b505050506040513d601f19601f8201168201806040525081019061342a91906144a4565b613432575050565b600082600160009054906101000a90046001600160a01b03166001600160a01b0316633d24e8c16040518163ffffffff1660e01b815260040160206040518083038186803b15801561348357600080fd5b505afa158015613497573d6000803e3d6000fd5b505050506040513d601f19601f820116820180604052508101906134bb919061453b565b6134c5919061485e565b905060006040518060a00160405280670de0b6b3a7640000846134e8919061485e565b81526020016000815260200160008152602001600081526020016000815250905061351433848361399f565b61355b336040518060a0016040528060008152602001670de0b6b3a76400008861353e919061485e565b815260200160008152602001600081526020016000815250613e4f565b61356484613fbd565b604080518581526020810184905233917f271d92af994165fae73a2bd6e3654aebd2827b552af9f2b66bd8f401c2c6a35791016109d0565b600754604051633f0bce7160e21b8152600481018390523360248201526001600160a01b039091169063fc2f39c49060440160206040518083038186803b1580156135e657600080fd5b505afa1580156135fa573d6000803e3d6000fd5b505050506040513d601f19601f8201168201806040525081019061361e91906144a4565b6136255750565b6136b53382600160009054906101000a90046001600160a01b03166001600160a01b03166355f948496040518163ffffffff1660e01b815260040160a06040518083038186803b15801561367857600080fd5b505afa15801561368c573d6000803e3d6000fd5b505050506040513d601f19601f820116820180604052508101906136b09190614454565b61399f565b60025460405163f2406fd960e01b8152600481018390526001600160a01b039091169063f2406fd990602401600060405180830381600087803b1580156136fb57600080fd5b505af115801561370f573d6000803e3d6000fd5b50506040518392503391507f7d73dd1d228945d647d7b3f1931d3f08e0761b57ce63f7707ebafbd2f2e534fe90600090a350565b6000546001600160a01b0316331461376d5760405162461bcd60e51b8152600401610a08906146e8565b6001600160a01b0381166137d25760405162461bcd60e51b815260206004820152602660248201527f4f776e61626c653a206e6577206f776e657220697320746865207a65726f206160448201526564647265737360d01b6064820152608401610a08565b6137db81613f6d565b50565b600754604051630715651960e01b815260009182916001600160a01b0390911690630715651990613817908790879033906004016147bb565b604080518083038186803b15801561382e57600080fd5b505afa158015613842573d6000803e3d6000fd5b505050506040513d601f19601f8201168201806040525081019061386691906144c0565b9092509050816138765750505050565b60015460408051631ae4f6c360e11b815290516000926001600160a01b0316916335c9ed869160048083019260a0929190829003018186803b1580156138bb57600080fd5b505afa1580156138cf573d6000803e3d6000fd5b505050506040513d601f19601f820116820180604052508101906138f39190614454565b905061390033868361399f565b600254604051634400f16b60e01b815260048101879052602481018690526001600160a01b0390911690634400f16b90604401600060405180830381600087803b15801561394d57600080fd5b505af1158015613961573d6000803e3d6000fd5b505060408051858152602081018890528893503392507f7e31a94b02aa034dee3d9efa5edc27916e93189ce423c1a1cbd40bdcb30d4fef910161308f565b80516002546001600160a01b0385811660009081526004602081905260409182902054915163c021137960e01b8152908101879052602481019190915291169063c02113799060440160206040518083038186803b158015613a0057600080fd5b505afa158015613a14573d6000803e3d6000fd5b505050506040513d601f19601f82011682018060405250810190613a38919061453b565b1015613a7b5760405162461bcd60e51b815260206004820152601260248201527124b739bab33334b1b4b2b73a103837bbb2b960711b6044820152606401610a08565b6020808201516001600160a01b038516600090815260049092526040909120600101541015613ae25760405162461bcd60e51b815260206004820152601360248201527224b739bab33334b1b4b2b73a10363ab6b132b960691b6044820152606401610a08565b6040808201516001600160a01b0385166000908152600460205291909120600201541015613b475760405162461bcd60e51b8152602060048201526012602482015271496e73756666696369656e7420627269636b60701b6044820152606401610a08565b60608101516001600160a01b0384166000908152600460205260409020600301541015613bae5760405162461bcd60e51b8152602060048201526015602482015274496e73756666696369656e7420636f6e637265746560581b6044820152606401610a08565b60808101516001600160a01b038416600090815260046020819052604090912001541015613c135760405162461bcd60e51b8152602060048201526012602482015271125b9cdd59999a58da595b9d081cdd19595b60721b6044820152606401610a08565b613c1d8383613d3c565b60005b6005811015613ce7576000828260058110613c4b57634e487b7160e01b600052603260045260246000fd5b60200201511115613cd557818160058110613c7657634e487b7160e01b600052603260045260246000fd5b602002015160046000866001600160a01b03166001600160a01b031681526020019081526020016000208260058110613cbf57634e487b7160e01b600052603260045260246000fd5b016000828254613ccf919061487d565b90915550505b80613cdf81614894565b915050613c20565b506001600160a01b0383166000818152600460205260409081902090517f87c77f9793ba00a008d93d781c3d6a55b69a2be075ebd5102aaab8bd410cad8091613d2f91614699565b60405180910390a2505050565b6002546001600160a01b0383811660009081526004602081905260409182902054915163c021137960e01b8152908101859052602481019190915291169063c02113799060440160206040518083038186803b158015613d9b57600080fd5b505afa158015613daf573d6000803e3d6000fd5b505050506040513d601f19601f82011682018060405250810190613dd3919061453b565b6001600160a01b038316600090815260046020526040812001556002546040516301f6106f60e11b8152600481018390526001600160a01b03909116906303ec20de90602401600060405180830381600087803b158015613e3357600080fd5b505af1158015613e47573d6000803e3d6000fd5b505050505050565b60005b6005811015613f19576000828260058110613e7d57634e487b7160e01b600052603260045260246000fd5b60200201511115613f0757818160058110613ea857634e487b7160e01b600052603260045260246000fd5b602002015160046000856001600160a01b03166001600160a01b031681526020019081526020016000208260058110613ef157634e487b7160e01b600052603260045260246000fd5b016000828254613f019190614846565b90915550505b80613f1181614894565b915050613e52565b506001600160a01b0382166000818152600460205260409081902090517f87c77f9793ba00a008d93d781c3d6a55b69a2be075ebd5102aaab8bd410cad8091613f6191614699565b60405180910390a25050565b600080546001600160a01b038381166001600160a01b0319831681178455604051919092169283917f8be0079c531659141344cd1fd0a4f28419497f9722a3daafe3b4186f6b6457e09190a35050565b336000805b6003811015614029576001600160a01b0383166000908152600560205260409020816003811061400257634e487b7160e01b600052603260045260246000fd5b015415614017578161401381614894565b9250505b8061402181614894565b915050613fc2565b60036140358386614846565b111561415557600060036140498487614846565b614053919061487d565b9050600091505b60036140668284614846565b10156140f9576001600160a01b038416600090815260056020526040902061408e8284614846565b600381106140ac57634e487b7160e01b600052603260045260246000fd5b01546001600160a01b038516600090815260056020526040902083600381106140e557634e487b7160e01b600052603260045260246000fd5b0155816140f181614894565b92505061405a565b600382101561414f576001600160a01b03841660009081526005602052604090204290836003811061413b57634e487b7160e01b600052603260045260246000fd5b01558161414781614894565b9250506140f9565b506141b7565b5060005b838110156141b7576001600160a01b038316600090815260056020526040902042906141858484614846565b600381106141a357634e487b7160e01b600052603260045260246000fd5b0155806141af81614894565b915050614159565b50505050565b60405180606001604052806003906020820280368337509192915050565b6040518060a001604052806005906020820280368337509192915050565b600082601f830112614209578081fd5b61421161480f565b80838560a086011115614222578384fd5b835b6005811015614243578151845260209384019390910190600101614224565b509095945050505050565b60006020828403121561425f578081fd5b813561426a816148c5565b9392505050565b600080600080600060a08688031215614288578081fd5b8535614293816148c5565b945060208601356142a3816148c5565b935060408601356142b3816148c5565b925060608601356142c3816148c5565b915060808601356142d3816148c5565b809150509295509295909350565b60008060c083850312156142f3578182fd5b82356142fe816148c5565b91506020603f84018513614310578182fd5b61431861480f565b808286018760c08801111561432b578485fd5b845b600581101561434a5781358452928401929084019060010161432d565b509497909650945050505050565b60008060006060848603121561436c578283fd5b8351614377816148c5565b6020850151909350614388816148da565b80925050604084015190509250925092565b600080604083850312156143ac578182fd5b82356143b7816148c5565b946020939093013593505050565b60006101808083850312156143d8578182fd5b83601f8401126143e6578182fd5b60405181810181811067ffffffffffffffff8211171561441457634e487b7160e01b84526041600452602484fd5b6040528084838101871015614427578485fd5b8493505b600c84101561424357805161443f816148da565b8252600193909301926020918201910161442b565b600060a08284031215614465578081fd5b61426a83836141f9565b6000806101408385031215614482578182fd5b61448c84846141f9565b915061449b8460a085016141f9565b90509250929050565b6000602082840312156144b5578081fd5b815161426a816148da565b600080604083850312156144d2578182fd5b82516144dd816148da565b6020939093015192949293505050565b600080600060608486031215614501578081fd5b835161450c816148da565b602085015160409095015190969495509392505050565b600060208284031215614534578081fd5b5035919050565b60006020828403121561454c578081fd5b5051919050565b60008060c08385031215614565578182fd5b82359150602084603f850112614579578182fd5b61458161480f565b808286018760c088011115614594578485fd5b845b600581101561434a5781356145aa816148da565b84529284019290840190600101614596565b600080604083850312156145ce578182fd5b50508035926020909101359150565b600080600060e084860312156145f1578081fd5b835192506020840151915061460985604086016141f9565b90509250925092565b8060005b60058110156141b75781511515845260209384019390910190600101614616565b8060005b60038110156141b757815184526020938401939091019060010161463b565b60608101612a318284614637565b60a08101818360005b6005811015614690578151835260209283019290910190600101614671565b50505092915050565b60a08101818360005b60058110156146905781548352602090920191600191820191016146a2565b6020808252600d908201526c121bdd5cd9481a5cc819195859609a1b604082015260600190565b6020808252818101527f4f776e61626c653a2063616c6c6572206973206e6f7420746865206f776e6572604082015260600190565b8281526101a0810160208083018460005b600c81101561474d57815115158352918301919083019060010161472e565b505050509392505050565b82815260c0810161426a6020830184614612565b83815260e081016147806020830185614612565b6001600160a01b039290921660c0919091015292915050565b83815260e081016147ad6020830185614612565b8260c0830152949350505050565b92835260208301919091526001600160a01b0316604082015260600190565b8481526020810184905260c081016147f56040830185614637565b6001600160a01b039290921660a091909101529392505050565b60405160a0810167ffffffffffffffff8111828210171561484057634e487b7160e01b600052604160045260246000fd5b60405290565b60008219821115614859576148596148af565b500190565b6000816000190483118215151615614878576148786148af565b500290565b60008282101561488f5761488f6148af565b500390565b60006000198214156148a8576148a86148af565b5060010190565b634e487b7160e01b600052601160045260246000fd5b6001600160a01b03811681146137db57600080fd5b80151581146137db57600080fdfea2646970667358221220cb568de52e461474650b9aa5342d391767ee97470a38238b79508b484f0b845564736f6c63430008040033",
  "linkReferences": {},
  "deployedLinkReferences": {}
}