{
  "_format": "hh-sol-artifact-1",
  "contractName": "Helper",
  "sourceName": "contracts/core/Helper.sol",
  "abi": [
    {
      "inputs": [
        {
          "internalType": "address",
          "name": "_settingAddress",
          "type": "address"
        },
        {
          "internalType": "address",
          "name": "_houseAddress",
          "type": "address"
        }
      ],
      "stateMutability": "nonpayable",
      "type": "constructor"
    },
    {
      "anonymous": false,
      "inputs": [
        {
          "indexed": true,
          "internalType": "address",
          "name": "previousOwner",
          "type": "address"
        },
        {
          "indexed": true,
          "internalType": "address",
          "name": "newOwner",
          "type": "address"
        }
      ],
      "name": "OwnershipTransferred",
      "type": "event"
    },
    {
      "inputs": [
        {
          "internalType": "uint256",
          "name": "",
          "type": "uint256"
        }
      ],
      "name": "baseAddonFortDependency",
      "outputs": [
        {
          "internalType": "uint256",
          "name": "",
          "type": "uint256"
        }
      ],
      "stateMutability": "view",
      "type": "function"
    },
    {
      "inputs": [
        {
          "internalType": "uint256",
          "name": "",
          "type": "uint256"
        }
      ],
      "name": "baseAddonMultiplier",
      "outputs": [
        {
          "internalType": "uint256",
          "name": "",
          "type": "uint256"
        }
      ],
      "stateMutability": "view",
      "type": "function"
    },
    {
      "inputs": [
        {
          "internalType": "uint256",
          "name": "depositedBalance",
          "type": "uint256"
        },
        {
          "internalType": "uint256",
          "name": "maxTokenReward",
          "type": "uint256"
        },
        {
          "internalType": "bool[12]",
          "name": "hasAddon",
          "type": "bool[12]"
        },
        {
          "internalType": "bool",
          "name": "isRare",
          "type": "bool"
        },
        {
          "internalType": "bool",
          "name": "hasTokenBoost",
          "type": "bool"
        },
        {
          "internalType": "bool",
          "name": "hasConcreteFoundation",
          "type": "bool"
        },
        {
          "internalType": "uint256[3]",
          "name": "lastFortificationTime",
          "type": "uint256[3]"
        },
        {
          "internalType": "uint256[4]",
          "name": "timeData",
          "type": "uint256[4]"
        },
        {
          "internalType": "uint256",
          "name": "lastDurability",
          "type": "uint256"
        }
      ],
      "name": "calculateTokenReward",
      "outputs": [
        {
          "internalType": "uint256",
          "name": "",
          "type": "uint256"
        }
      ],
      "stateMutability": "view",
      "type": "function"
    },
    {
      "inputs": [
        {
          "internalType": "uint256",
          "name": "tokenId",
          "type": "uint256"
        }
      ],
      "name": "getCurrentMaxDurability",
      "outputs": [
        {
          "internalType": "uint256",
          "name": "",
          "type": "uint256"
        }
      ],
      "stateMutability": "view",
      "type": "function"
    },
    {
      "inputs": [
        {
          "internalType": "uint256",
          "name": "timestamp",
          "type": "uint256"
        },
        {
          "internalType": "uint256",
          "name": "durabilityReductionPercent",
          "type": "uint256"
        },
        {
          "internalType": "uint256[3]",
          "name": "lastFortificationTime",
          "type": "uint256[3]"
        },
        {
          "internalType": "uint256[4]",
          "name": "timeData",
          "type": "uint256[4]"
        },
        {
          "internalType": "uint256",
          "name": "lastDurability",
          "type": "uint256"
        }
      ],
      "name": "getDurabilityAtBreakpoint",
      "outputs": [
        {
          "internalType": "uint256",
          "name": "",
          "type": "uint256"
        }
      ],
      "stateMutability": "pure",
      "type": "function"
    },
    {
      "inputs": [
        {
          "internalType": "uint256",
          "name": "tokenId",
          "type": "uint256"
        },
        {
          "internalType": "uint256",
          "name": "timestamp",
          "type": "uint256"
        }
      ],
      "name": "getDurabilityAtTimestamp",
      "outputs": [
        {
          "internalType": "uint256",
          "name": "",
          "type": "uint256"
        }
      ],
      "stateMutability": "view",
      "type": "function"
    },
    {
      "inputs": [
        {
          "internalType": "uint256",
          "name": "tokenId",
          "type": "uint256"
        },
        {
          "internalType": "bool[5]",
          "name": "harvestingReward",
          "type": "bool[5]"
        }
      ],
      "name": "getHarvestCost",
      "outputs": [
        {
          "internalType": "uint256",
          "name": "",
          "type": "uint256"
        }
      ],
      "stateMutability": "view",
      "type": "function"
    },
    {
      "inputs": [
        {
          "internalType": "uint256",
          "name": "tokenId",
          "type": "uint256"
        }
      ],
      "name": "getHouseDetails",
      "outputs": [
        {
          "internalType": "uint256",
          "name": "",
          "type": "uint256"
        },
        {
          "internalType": "uint256",
          "name": "",
          "type": "uint256"
        },
        {
          "internalType": "uint256",
          "name": "",
          "type": "uint256"
        },
        {
          "internalType": "uint256[5]",
          "name": "",
          "type": "uint256[5]"
        },
        {
          "internalType": "uint256",
          "name": "",
          "type": "uint256"
        },
        {
          "internalType": "uint256",
          "name": "",
          "type": "uint256"
        }
      ],
      "stateMutability": "view",
      "type": "function"
    },
    {
      "inputs": [
        {
          "internalType": "uint256",
          "name": "tokenId",
          "type": "uint256"
        },
        {
          "internalType": "uint256",
          "name": "percent",
          "type": "uint256"
        }
      ],
      "name": "getRepairCost",
      "outputs": [
        {
          "internalType": "uint256[5]",
          "name": "",
          "type": "uint256[5]"
        }
      ],
      "stateMutability": "view",
      "type": "function"
    },
    {
      "inputs": [
        {
          "internalType": "uint256",
          "name": "tokenId",
          "type": "uint256"
        },
        {
          "internalType": "uint256",
          "name": "percent",
          "type": "uint256"
        }
      ],
      "name": "getRepairData",
      "outputs": [
        {
          "internalType": "uint256",
          "name": "",
          "type": "uint256"
        },
        {
          "internalType": "uint256",
          "name": "",
          "type": "uint256"
        },
        {
          "internalType": "uint256[5]",
          "name": "",
          "type": "uint256[5]"
        }
      ],
      "stateMutability": "view",
      "type": "function"
    },
    {
      "inputs": [],
      "name": "owner",
      "outputs": [
        {
          "internalType": "address",
          "name": "",
          "type": "address"
        }
      ],
      "stateMutability": "view",
      "type": "function"
    },
    {
      "inputs": [],
      "name": "renounceOwnership",
      "outputs": [],
      "stateMutability": "nonpayable",
      "type": "function"
    },
    {
      "inputs": [
        {
          "internalType": "address",
          "name": "_settingAddress",
          "type": "address"
        },
        {
          "internalType": "address",
          "name": "_houseAddress",
          "type": "address"
        }
      ],
      "name": "setSettingAndHouseContractAddress",
      "outputs": [],
      "stateMutability": "nonpayable",
      "type": "function"
    },
    {
      "inputs": [
        {
          "internalType": "address",
          "name": "newOwner",
          "type": "address"
        }
      ],
      "name": "transferOwnership",
      "outputs": [],
      "stateMutability": "nonpayable",
      "type": "function"
    }
  ],
  "bytecode": "0x60806040523480156200001157600080fd5b5060405162002945380380620029458339810160408190526200003491620005ee565b6200003f3362000527565b600180546001600160a01b038481166001600160a01b03199283161790925560028054928416929091169190911781556040805160a0810182526014815260208101929092526000908201819052606082018190526080820152620000a990600390600562000577565b506040518060a0016040528060148152602001600081526020016005815260200160008152602001600081525060036001600c8110620000f957634e487b7160e01b600052603260045260246000fd5b600502019060056200010d92919062000577565b506040518060a00160405280601e8152602001600081526020016000815260200160008152602001600081525060036002600c81106200015d57634e487b7160e01b600052603260045260246000fd5b600502019060056200017192919062000577565b506040518060a00160405280601481526020016003815260200160008152602001600081526020016000815250600380600c8110620001c057634e487b7160e01b600052603260045260246000fd5b60050201906005620001d492919062000577565b506040518060a0016040528060148152602001600681526020016006815260200160038152602001600081525060036004600c81106200022457634e487b7160e01b600052603260045260246000fd5b600502019060056200023892919062000577565b506040518060a0016040528060148152602001600681526020016004815260200160058152602001600081525060036005600c81106200028857634e487b7160e01b600052603260045260246000fd5b600502019060056200029c92919062000577565b506040518060a0016040528060148152602001600081526020016000815260200160088152602001600081525060036006600c8110620002ec57634e487b7160e01b600052603260045260246000fd5b600502019060056200030092919062000577565b506040518060a0016040528060148152602001600081526020016000815260200160008152602001600881525060036007600c81106200035057634e487b7160e01b600052603260045260246000fd5b600502019060056200036492919062000577565b506040518060a0016040528060148152602001600081526020016000815260200160008152602001600681525060036008600c8110620003b457634e487b7160e01b600052603260045260246000fd5b60050201906005620003c892919062000577565b506040805160a081018252601481526006602082015260089181019190915260006060820152600260808201526200040590603090600562000577565b506040518060a00160405280601e815260200160088152602001600881526020016008815260200160088152506003600a600c81106200045557634e487b7160e01b600052603260045260246000fd5b600502019060056200046992919062000577565b506040518060a001604052806014815260200160008152602001600281526020016000815260200160008152506003600b600c8110620004b957634e487b7160e01b600052603260045260246000fd5b60050201906005620004cd92919062000577565b5050606e603f8190556069604081905560418190556042829055604382905560736044819055604582905560468390556047919091556048919091556049819055604a555060026052556001605455600360555562000625565b600080546001600160a01b038381166001600160a01b0319831681178455604051919092169283917f8be0079c531659141344cd1fd0a4f28419497f9722a3daafe3b4186f6b6457e09190a35050565b8260058101928215620005a8579160200282015b82811115620005a85782518255916020019190600101906200058b565b50620005b6929150620005ba565b5090565b5b80821115620005b65760008155600101620005bb565b80516001600160a01b0381168114620005e957600080fd5b919050565b6000806040838503121562000601578182fd5b6200060c83620005d1565b91506200061c60208401620005d1565b90509250929050565b61231080620006356000396000f3fe608060405234801561001057600080fd5b50600436106100ea5760003560e01c806397d9dc571161008c578063c949f1bf11610066578063c949f1bf146101db578063c995e9a5146101ee578063e890834614610201578063f2fde38b1461022657600080fd5b806397d9dc5714610186578063c09f218d14610199578063c8f7789c146101b957600080fd5b8063678091f7116100c8578063678091f71461013d578063715018a6146101505780637b55c57f146101585780638da5cb5b1461016b57600080fd5b80631ef61f61146100ef57806335e3f227146101045780635e61537f1461012a575b600080fd5b6101026100fd366004611be9565b610239565b005b610117610112366004611e7c565b61029a565b6040519081526020015b60405180910390f35b610117610138366004612029565b6102b1565b61011761014b366004611f44565b6103c6565b610102610705565b610117610166366004611eac565b61073b565b6000546040516001600160a01b039091168152602001610121565b610117610194366004611f23565b610864565b6101ac6101a7366004611f23565b610a3e565b60405161012191906120d0565b6101cc6101c7366004611f23565b610e0a565b60405161012193929190612113565b6101176101e9366004611e7c565b610e3f565b6101176101fc366004611e7c565b610e4f565b61021461020f366004611e7c565b610e96565b60405161012196959493929190612136565b610102610234366004611bc6565b6112e5565b6000546001600160a01b0316331461026c5760405162461bcd60e51b8152600401610263906120de565b60405180910390fd5b600180546001600160a01b039384166001600160a01b03199182161790915560028054929093169116179055565b604b81600c81106102aa57600080fd5b0154905081565b600080607884600360200201516102c89089612259565b6102d2919061221a565b905060005b8181101561031057868410156102f2576000925050506103bd565b6102fc8785612259565b93508061030881612270565b9150506102d7565b506000805b600381101561036a5786816003811061033e57634e487b7160e01b600052603260045260246000fd5b6020020151891015610358578161035481612270565b9250505b8061036281612270565b915050610315565b506000670de0b6b3a764000061038183600a61223a565b61038b919061223a565b61039e670de0b6b3a7640000606461223a565b6103a89190612202565b9050848110156103b6578094505b8493505050505b95945050505050565b60008080607885600360200201516103de9042612259565b6103e8919061221a565b6103f3906001612202565b600154604051633cb03fd960e01b81528b1515600482015289151560248201529192506000916001600160a01b0390911690633cb03fd99060440160806040518083038186803b15801561044657600080fd5b505afa15801561045a573d6000803e3d6000fd5b505050506040513d601f19601f8201168201806040525081019061047e9190611d06565b905081600114156104dd57606086015161049c908c8b8a8a86611380565b606080880151908301516104b391908a8a8a6102b1565b60608801516104c29042612259565b6104cc919061223a565b6104d6919061223a565b92506106ae565b60608101516000906104ef908761221a565b6104fa906001612202565b8310156106095760608201516002906105138286612259565b61051e600187612259565b610528919061223a565b610532919061223a565b61053c919061221a565b86610548600186612259565b610552919061223a565b61055c9190612259565b9050607861056b600185612259565b610575919061223a565b60608801516105849042612259565b61058e9190612259565b61059c428e8d8c8c88611380565b60608401516105ac600187612259565b6105b6919061223a565b6105c09089612259565b6105ca919061223a565b6105d4919061223a565b60786105e4428f8e8d8d89611380565b6105ee908461223a565b6105f8919061223a565b6106029190612202565b93506106ac565b6060820151610618908761221a565b610623906001612202565b92506002826003602002015161063a600286612259565b610645600187612259565b61064f919061223a565b610659919061223a565b610663919061221a565b8661066f600186612259565b610679919061223a565b6106839190612259565b90506078610695428e8d8c8c88611380565b61069f908361223a565b6106a9919061223a565b93505b505b61559b60646106c5670de0b6b3a76400008661221a565b6106cf919061221a565b6106d9908f61223a565b6106e3919061221a565b9250828c116106f2578b6106f4565b825b9d9c50505050505050505050505050565b6000546001600160a01b0316331461072f5760405162461bcd60e51b8152600401610263906120de565b610739600061153a565b565b60008060005b60058110156107945783816005811061076a57634e487b7160e01b600052603260045260246000fd5b602002015115610782578161077e81612270565b9250505b8061078c81612270565b915050610741565b5060025460405163a5dd678960e01b8152600481018690526001600160a01b039091169063a5dd67899060240160206040518083038186803b1580156107d957600080fd5b505afa1580156107ed573d6000803e3d6000fd5b505050506040513d601f19601f820116820180604052508101906108119190611db8565b1561083c57670de0b6b3a764000061082a82600561223a565b610834919061223a565b91505061085e565b670de0b6b3a764000061085082600a61223a565b61085a919061223a565b9150505b92915050565b600254604051637aab84bd60e01b8152600481018490526000918291829182916001600160a01b0390911690637aab84bd906024016101606040518083038186803b1580156108b257600080fd5b505afa1580156108c6573d6000803e3d6000fd5b505050506040513d601f19601f820116820180604052508101906108ea9190611dd4565b50600154604051639f7cc62d60e01b81528215156004820152959d50929b50995060009850506001600160a01b03169550639f7cc62d945050602401915061092f9050565b60206040518083038186803b15801561094757600080fd5b505afa15801561095b573d6000803e3d6000fd5b505050506040513d601f19601f8201168201806040525081019061097f9190611e94565b90506000607861098f8689612259565b610999919061221a565b905060005b818110156109db57828510156109bd576000965050505050505061085e565b6109c78386612259565b9450806109d381612270565b91505061099e565b506000670de0b6b3a76400006109f18a8a61158a565b6109fc90600a61223a565b610a06919061223a565b610a19670de0b6b3a7640000606461223a565b610a239190612202565b905084811015610a31578094505b5092979650505050505050565b610a46611a85565b610a4e611aa3565b60025460405163a92aed0d60e01b8152600481018690526000916001600160a01b03169063a92aed0d906024016101a06040518083038186803b158015610a9457600080fd5b505afa158015610aa8573d6000803e3d6000fd5b505050506040513d601f19601f82011682018060405250810190610acc9190611c7f565b6040805160a08101909152919350915060009080610af3670de0b6b3a7640000600a61223a565b81526020016000815260200160008152602001600081526020016000815250905060005b6005811015610ba657670de0b6b3a7640000600a87848460058110610b4c57634e487b7160e01b600052603260045260246000fd5b6020020151610b5b919061223a565b610b65919061221a565b610b6f919061221a565b828260058110610b8f57634e487b7160e01b600052603260045260246000fd5b602002015280610b9e81612270565b915050610b17565b5060005b600c811015610c9d578381600c8110610bd357634e487b7160e01b600052603260045260246000fd5b602002015115610c8b5760015b6005811015610c89576000600383600c8110610c0c57634e487b7160e01b600052603260045260246000fd5b600502018260058110610c2f57634e487b7160e01b600052603260045260246000fd5b01541115610c7757610c42600a8861221a565b838260058110610c6257634e487b7160e01b600052603260045260246000fd5b60200201818151610c739190612202565b9052505b80610c8181612270565b915050610be0565b505b80610c9581612270565b915050610baa565b5081156103bd57600154604051632bc86d1960e11b8152600481018490526000916001600160a01b031690635790da329060240160a06040518083038186803b158015610ce957600080fd5b505afa158015610cfd573d6000803e3d6000fd5b505050506040513d601f19601f82011682018060405250810190610d219190611d5f565b905060005b6005811015610dff576000828260058110610d5157634e487b7160e01b600052603260045260246000fd5b60200201511115610ded576064828260058110610d7e57634e487b7160e01b600052603260045260246000fd5b6020020151610d8e906064612259565b848360058110610dae57634e487b7160e01b600052603260045260246000fd5b6020020151610dbd919061223a565b610dc7919061221a565b838260058110610de757634e487b7160e01b600052603260045260246000fd5b60200201525b80610df781612270565b915050610d26565b505095945050505050565b600080610e15611a85565b610e1e85610e4f565b610e288642610864565b610e328787610a3e565b9250925092509250925092565b603f81600c81106102aa57600080fd5b6000670de0b6b3a7640000610e64834261158a565b610e6f90600a61223a565b610e79919061223a565b610e8c670de0b6b3a7640000606461223a565b61085e9190612202565b6000806000610ea3611a85565b6002546040516318b9af1f60e01b815260048101879052600091829182916001600160a01b0316906318b9af1f9060240160606040518083038186803b158015610eec57600080fd5b505afa158015610f00573d6000803e3d6000fd5b505050506040513d601f19601f82011682018060405250810190610f249190611c21565b50600254604051637aab84bd60e01b8152600481018c9052919350600092506001600160a01b031690637aab84bd906024016101606040518083038186803b158015610f6f57600080fd5b505afa158015610f83573d6000803e3d6000fd5b505050506040513d601f19601f82011682018060405250810190610fa79190611dd4565b509899505050881515965061113b9550505050505057610fd0670de0b6b3a7640000606461223a565b610fe3670de0b6b3a7640000606461223a565b8261107357600160009054906101000a90046001600160a01b03166001600160a01b03166383f04aa86040518163ffffffff1660e01b815260040160206040518083038186803b15801561103657600080fd5b505afa15801561104a573d6000803e3d6000fd5b505050506040513d601f19601f8201168201806040525081019061106e9190611e94565b6110f9565b600160009054906101000a90046001600160a01b03166001600160a01b031663fb0a45696040518163ffffffff1660e01b815260040160206040518083038186803b1580156110c157600080fd5b505afa1580156110d5573d6000803e3d6000fd5b505050506040513d601f19601f820116820180604052508101906110f99190611e94565b6040518060a0016040528060008152602001600081526020016000815260200160008152602001600081525060008097509750975097509750975050506112dc565b6111458942610864565b61114e8a610e4f565b6111588b4261166f565b600254604051635f88926760e01b8152600481018e90526001600160a01b0390911690635f8892679060240160a06040518083038186803b15801561119c57600080fd5b505afa1580156111b0573d6000803e3d6000fd5b505050506040513d601f19601f820116820180604052508101906111d49190611d5f565b60025460405163075a295360e11b8152600481018f90526001600160a01b0390911690630eb452a69060240160206040518083038186803b15801561121857600080fd5b505afa15801561122c573d6000803e3d6000fd5b505050506040513d601f19601f820116820180604052508101906112509190611e94565b60015460405163e43bb28d60e01b815287151560048201526001600160a01b039091169063e43bb28d9060240160206040518083038186803b15801561129557600080fd5b505afa1580156112a9573d6000803e3d6000fd5b505050506040513d601f19601f820116820180604052508101906112cd9190611e94565b97509750975097509750975050505b91939550919395565b6000546001600160a01b0316331461130f5760405162461bcd60e51b8152600401610263906120de565b6001600160a01b0381166113745760405162461bcd60e51b815260206004820152602660248201527f4f776e61626c653a206e6577206f776e657220697320746865207a65726f206160448201526564647265737360d01b6064820152608401610263565b61137d8161153a565b50565b805160009085156113aa57604083015160649061139d908361223a565b6113a7919061221a565b90505b60005b600c81101561152e578781600c81106113d657634e487b7160e01b600052603260045260246000fd5b60200201511561151c578060021480156113f05750845189115b156113fa5761151c565b80600b14801561140d5750602085015189115b156114175761151c565b6000604b82600c811061143a57634e487b7160e01b600052603260045260246000fd5b015411801561149b575088866001604b84600c811061146957634e487b7160e01b600052603260045260246000fd5b01546114759190612259565b6003811061149357634e487b7160e01b600052603260045260246000fd5b602002015111155b156114a55761151c565b8060021480156114b85750604085015189105b156114e05760208401516064906114cf908461223a565b6114d9919061221a565b915061151c565b6064603f82600c811061150357634e487b7160e01b600052603260045260246000fd5b015461150f908461223a565b611519919061221a565b91505b8061152681612270565b9150506113ad565b50979650505050505050565b600080546001600160a01b038381166001600160a01b0319831681178455604051919092169283917f8be0079c531659141344cd1fd0a4f28419497f9722a3daafe3b4186f6b6457e09190a35050565b60025460405163de3aa52360e01b81526004810184905260009182916001600160a01b039091169063de3aa5239060240160606040518083038186803b1580156115d357600080fd5b505afa1580156115e7573d6000803e3d6000fd5b505050506040513d601f19601f8201168201806040525081019061160b9190611cad565b90506000805b60038110156116665782816003811061163a57634e487b7160e01b600052603260045260246000fd5b6020020151851015611654578161165081612270565b9250505b8061165e81612270565b915050611611565b50949350505050565b600080600080600080600080600080600260009054906101000a90046001600160a01b03166001600160a01b0316637aab84bd8d6040518263ffffffff1660e01b81526004016116c191815260200190565b6101606040518083038186803b1580156116da57600080fd5b505afa1580156116ee573d6000803e3d6000fd5b505050506040513d601f19601f820116820180604052508101906117129190611dd4565b909192939450909192935090919250909150905050809a50819b50829c508397508498505050505050600160009054906101000a90046001600160a01b03166001600160a01b031663ac331545856040518263ffffffff1660e01b8152600401611780911515815260200190565b60606040518083038186803b15801561179857600080fd5b505afa1580156117ac573d6000803e3d6000fd5b505050506040513d601f19601f820116820180604052508101906117d0919061207a565b919a509550899250905082156117f95760646117ec828b61223a565b6117f6919061221a565b98505b5050600254604051631b0a628960e11b8152600481018c9052600093506001600160a01b039091169150633614c512906024016101806040518083038186803b15801561184557600080fd5b505afa158015611859573d6000803e3d6000fd5b505050506040513d601f19601f8201168201806040525081019061187d9190611c63565b60025460405163de3aa52360e01b8152600481018c90529192506000916001600160a01b039091169063de3aa5239060240160606040518083038186803b1580156118c757600080fd5b505afa1580156118db573d6000803e3d6000fd5b505050506040513d601f19601f820116820180604052508101906118ff9190611cad565b905060005b600c811015611a76578281600c811061192d57634e487b7160e01b600052603260045260246000fd5b602002015115611a645780600214801561194657508987105b1561195057611a64565b80600b14801561195f57508986105b1561196957611a64565b6000604b82600c811061198c57634e487b7160e01b600052603260045260246000fd5b01541180156119ed575089826001604b84600c81106119bb57634e487b7160e01b600052603260045260246000fd5b01546119c79190612259565b600381106119e557634e487b7160e01b600052603260045260246000fd5b602002015111155b156119f757611a64565b806002148015611a0657508985115b15611a28576064611a17858a61223a565b611a21919061221a565b9750611a64565b6064603f82600c8110611a4b57634e487b7160e01b600052603260045260246000fd5b0154611a57908a61223a565b611a61919061221a565b97505b80611a6e81612270565b915050611904565b50959998505050505050505050565b6040518060a001604052806005906020820280368337509192915050565b604051806101800160405280600c906020820280368337509192915050565b600082601f830112611ad2578081fd5b611ada61216f565b80838561018086011115611aec578384fd5b835b600c811015611b17578151611b02816122cc565b84526020938401939190910190600101611aee565b509095945050505050565b600082601f830112611b32578081fd5b611b3a612199565b808385606086011115611b4b578384fd5b835b6003811015611b17578135845260209384019390910190600101611b4d565b600082601f830112611b7c578081fd5b611b846121bc565b808385608086011115611b95578384fd5b835b6004811015611b17578135845260209384019390910190600101611b97565b8035611bc1816122cc565b919050565b600060208284031215611bd7578081fd5b8135611be2816122b7565b9392505050565b60008060408385031215611bfb578081fd5b8235611c06816122b7565b91506020830135611c16816122b7565b809150509250929050565b600080600060608486031215611c35578081fd5b8351611c40816122b7565b6020850151909350611c51816122cc565b80925050604084015190509250925092565b60006101808284031215611c75578081fd5b611be28383611ac2565b6000806101a08385031215611c92578182fd5b611c9c8484611ac2565b915061018083015190509250929050565b600060608284031215611cbe578081fd5b82601f830112611ccc578081fd5b611cd4612199565b808385606086011115611ce5578384fd5b835b6003811015611b17578151845260209384019390910190600101611ce7565b600060808284031215611d17578081fd5b82601f830112611d25578081fd5b611d2d6121bc565b808385608086011115611d3e578384fd5b835b6004811015611b17578151845260209384019390910190600101611d40565b600060a08284031215611d70578081fd5b82601f830112611d7e578081fd5b611d866121df565b80838560a086011115611d97578384fd5b835b6005811015611b17578151845260209384019390910190600101611d99565b600060208284031215611dc9578081fd5b8151611be2816122cc565b60008060008060008060008060008060006101608c8e031215611df5578889fd5b8b51611e00816122cc565b60208d0151909b50611e11816122cc565b809a505060408c0151985060608c0151975060808c0151965060a08c0151955060c08c0151945060e08c015193506101008c015192506101208c0151611e56816122cc565b6101408d0151909250611e68816122cc565b809150509295989b509295989b9093969950565b600060208284031215611e8d578081fd5b5035919050565b600060208284031215611ea5578081fd5b5051919050565b60008060c08385031215611ebe578182fd5b82359150602084603f850112611ed2578182fd5b611eda6121df565b808286018760c088011115611eed578485fd5b845b6005811015611f15578135611f03816122cc565b84529284019290840190600101611eef565b509497909650945050505050565b60008060408385031215611f35578182fd5b50508035926020909101359150565b60008060008060008060008060006103208a8c031215611f62578283fd5b893598506020808b013598508b605f8c0112611f7c578384fd5b611f8461216f565b8060408d016101c08e018f811115611f9a578788fd5b875b600c811015611fc2578235611fb0816122cc565b85529385019391850191600101611f9c565b50829b50611fcf81611bb6565b9a505050505050611fe36101e08b01611bb6565b9450611ff26102008b01611bb6565b93506120028b6102208c01611b22565b92506120128b6102808c01611b6c565b91506103008a013590509295985092959850929598565b60008060008060006101408688031215612041578283fd5b85359450602086013593506120598760408801611b22565b92506120688760a08801611b6c565b94979396509194610120013592915050565b60008060006060848603121561208e578081fd5b8351925060208401519150604084015190509250925092565b8060005b60058110156120ca5781518452602093840193909101906001016120ab565b50505050565b60a0810161085e82846120a7565b6020808252818101527f4f776e61626c653a2063616c6c6572206973206e6f7420746865206f776e6572604082015260600190565b8381526020810183905260e0810161212e60408301846120a7565b949350505050565b8681526020810186905260408101859052610140810161215960608301866120a7565b6101008201939093526101200152949350505050565b604051610180810167ffffffffffffffff81118282101715612193576121936122a1565b60405290565b6040516060810167ffffffffffffffff81118282101715612193576121936122a1565b6040516080810167ffffffffffffffff81118282101715612193576121936122a1565b60405160a0810167ffffffffffffffff81118282101715612193576121936122a1565b600082198211156122155761221561228b565b500190565b60008261223557634e487b7160e01b81526012600452602481fd5b500490565b60008160001904831182151516156122545761225461228b565b500290565b60008282101561226b5761226b61228b565b500390565b60006000198214156122845761228461228b565b5060010190565b634e487b7160e01b600052601160045260246000fd5b634e487b7160e01b600052604160045260246000fd5b6001600160a01b038116811461137d57600080fd5b801515811461137d57600080fdfea26469706673582212208f9aca4f67a9e983e4179d368afc01328a24af60121edff81086631dc8f91cc564736f6c63430008040033",
  "linkReferences": {},
  "deployedLinkReferences": {}
}